:020000040000FA
:100000000C941A030C9442030C9442030C94420384
:100010000C9442030C9442030C9442030C9442034C
:100020000C9442030C9442030C9442030C9442033C
:100030000C9442030C9442030C9442030C9442032C
:100040000C9415150C9442030C9442030C94420337
:100050000C9442030C9442030C9442030C9442030C
:100060000C945F150C94420300000000003E5B4FAF
:100070005B3E3E6B4F6B3E1C3E7C3E1C183C7E3C08
:10008000181C577D571C1C5E7F5E1C00183C180016
:10009000FFE7C3E7FF0018241800FFE7DBE7FF30A6
:1000A000483A060E2629792926407F050507407F14
:1000B00005253F5A3CE73C5A7F3E1C1C08081C1C87
:1000C0003E7F14227F22145F5F005F5F06097F017D
:1000D0007F006689956A606060606094A2FFA29468
:1000E00008047E040810207E201008082A1C080836
:1000F0001C2A08081E101010100C1E0C1E0C303884
:100100003E3830060E3E0E06000000000000005F84
:1001100000000007000700147F147F14242A7F2AA0
:100120001223130864623649562050000807030062
:10013000001C2241000041221C002A1C7F1C2A08AE
:10014000083E080800807030000808080808000011
:1001500060600020100804023E5149453E00427F85
:10016000400072494949462141494D331814127FD4
:100170001027454545393C4A494931412111090774
:100180003649494936464949291E000014000000F5
:1001900040340000000814224114141414140041C7
:1001A00022140802015909063E415D594E7C121184
:1001B000127C7F494949363E414141227F414141BC
:1001C0003E7F494949417F090909013E4141517337
:1001D0007F0808087F00417F41002040413F017FA8
:1001E000081422417F404040407F021C027F7F0470
:1001F00008107F3E4141413E7F090909063E4151B9
:10020000215E7F09192946264949493203017F01A8
:10021000033F4040403F1F2040201F3F4038403FA9
:10022000631408146303047804036159494D4300BF
:100230007F4141410204081020004141417F0402F6
:10024000010204404040404000030708002054548D
:1002500078407F284444383844444428384444286B
:100260007F385454541800087E090218A4A49C78BE
:100270007F0804047800447D40002040403D007F1A
:100280001028440000417F40007C047804787C08FA
:100290000404783844444438FC18242418182424CE
:1002A00018FC7C08040408485454542404043F44B3
:1002B000243C4040207C1C2040201C3C4030403CE2
:1002C00044281028444C9090907C4464544C440042
:1002D00008364100000077000000413608000201A6
:1002E0000204023C2623263C1EA1A161123A404092
:1002F000207A38545455592155557941225454780F
:1003000042215554784020545579400C1E527212A7
:100310003955555559395454545939555454580030
:1003200000457C410002457D420001457C407D1234
:1003300011127DF0282528F07C5455450020545496
:100340007C547C0A097F4932494949323A44444441
:100350003A324A4848303A4141217A3A424020787C
:10036000009DA0A07D3D4242423D3D4040403D3C7D
:1003700024FF2424487E4943662B2FFC2F2BFF09A2
:1003800029F620C0887E0903205454794100004496
:100390007D413048484A32384040227A007A0A0A81
:1003A000727D0D19317D2629292F282629292926F4
:1003B00030484D4020380808080808080808382F39
:1003C00010C8ACBA2F102834FA00007B00000814C3
:1003D0002A142222142A14085500550055AA55AA99
:1003E00055AAFF55FF55FF000000FF00101010FF39
:1003F00000141414FF001010FF00FF1010F010F094
:10040000141414FC001414F700FF0000FF00FF1484
:1004100014F404FC141417101F10101F101F1414D0
:10042000141F00101010F0000000001F101010101A
:100430001F10101010F010000000FF10101010100E
:1004400010101010FF10000000FF140000FF00FF4C
:1004500000001F10170000FC04F4141417101714E8
:1004600014F404F40000FF00F7141414141414140A
:10047000F700F7141414171410101F101F1414147D
:10048000F4141010F010F000001F101F0000001FE7
:1004900014000000FC140000F010F01010FF10FF1A
:1004A000141414FF141010101F00000000F010FFAF
:1004B000FFFFFFFFF0F0F0F0F0FFFFFF0000000093
:1004C00000FFFF0F0F0F0F0F3844443844FC4A4A17
:1004D0004A347E02020606027E027E0263554941CC
:1004E000633844443C04407E201E2006027E020203
:1004F00099A5E7A5991C2A492A1C4C7201724C3017
:100500004A4D4D303048784830BC625A463D3E49ED
:100510004949007E0101017E2A2A2A2A2A44445F91
:10052000444440514A444040444A51400000FF0185
:1005300003E080FF000008086B6B08361236243693
:10054000060F090F060000181800000010100030F8
:1005500040FF0101001F01011E00191D1712003C80
:100560003C3C3C0000000000EF03038002CF03008E
:10057000C130ED0464031281E803850078CB0539AE
:100580002C003402F70120EA020000C00123C1015F
:1005900010C5023E28C701863601483701003A01DE
:1005A00055B1020018B603088227F20100260101A6
:1005B000E00F0F312B0C0E084EF1370710030E0918
:1005C00000E10F000E1403110731C148080F0C3170
:1005D000360F118029800000000000240027002A27
:1005E00000000000080002010000030407000000F2
:1005F0000000000000000000002300260029000188
:1006000002040810204080010204081020010204A6
:1006100008102000000000250028002B000404041E
:10062000040404040402020202020203030303039B
:1006300003007E1611241FBECFEFD8E0DEBFCDBF72
:1006400011E0A0E0B1E0E0E7F2E402C005900D9215
:10065000A63BB107D9F722E0A6EBB1E001C01D929D
:10066000A83DB207E1F713E0CAE1D3E004C0219747
:10067000FE010E94531EC931D107C9F70E947917A4
:100680000C9436210C940000811101C081E080930C
:10069000A9028093AA02089508950895AF92BF9287
:1006A000CF92DF92EF92FF920F931F93CF93DF933E
:1006B0006C017B018B01040F151FEB015E01AE186D
:1006C000BF08C017D10759F06991D601ED91FC918F
:1006D0000190F081E02DC6010995892B79F7C501BC
:1006E000DF91CF911F910F91FF90EF90DF90CF900E
:1006F000BF90AF900895833081F028F4813099F055
:100700008230A9F008958730A9F08830C9F084308C
:10071000B1F4809180008F7D03C0809180008F773D
:1007200080938000089584B58F7784BD089584B543
:100730008F7DFBCF8091B0008F778093B0000895BC
:100740008091B0008F7DF9CFCF93DF93282F30E0D9
:10075000F901EF51FA4F8491F901E150FA4FD49128
:10076000F901E35EF94FC491CC23A1F081110E94FD
:100770007B03EC2FF0E0EE0FFF1FEB50FA4FA5913B
:10078000B491EC91ED2381E090E009F480E0DF91F9
:10079000CF91089580E090E0FACF1F93CF93DF933D
:1007A000282F30E0F901EF51FA4F8491F901E1501F
:1007B000FA4FD491F901E35EF94FC491CC23A9F02B
:1007C000162F81110E947B03EC2FF0E0EE0FFF1F2C
:1007D000ED5EF94FA591B4918FB7F894EC9111119A
:1007E00008C0D095DE23DC938FBFDF91CF911F919E
:1007F0000895DE2BF8CFCF93DF9390E0FC01E1501A
:10080000FA4F2491835E994FFC0184918823C9F0AB
:1008100090E0880F991FFC01E952FA4FA591B4911D
:10082000FC01ED5EF94FC591D49161110DC09FB7E8
:10083000F8948C91209582238C9388812823288397
:100840009FBFDF91CF910895623051F49FB7F89424
:100850003C91822F809583238C93E8812E2BEFCFC0
:100860008FB7F894EC912E2B2C938FBFEACF3FB724
:10087000F8948091000290910102A0910202B0913F
:10088000030226B5A89B05C02F3F19F00196A11DB4
:10089000B11D3FBFBA2FA92F982F8827BC01CD01CA
:1008A000620F711D811D911D42E0660F771F881F29
:1008B000991F4A95D1F708958F929F92AF92BF9258
:1008C000CF92DF92EF92FF924B015C010E943704BE
:1008D0006B017C010E9437046C197D098E099F0908
:1008E000683E734081059105A8F321E0821A9108C2
:1008F000A108B10888EEC80E83E0D81EE11CF11CE7
:1009000081149104A104B10429F7FF90EF90DF90C6
:10091000CF90BF90AF909F908F9008952091D80175
:10092000260F3327331F21323105ECF420915F026B
:10093000FC0190E080E0243069F082E00895A0910D
:10094000D8012191AC0148545E4FA40FB52FB11DC1
:100950002C930196861798F38091D801680F6093C5
:10096000D80180E0089581E0089510925F0281E04F
:1009700080935E021092390261E082E10E94CD0311
:1009800061E083E10E94CD03E9EBF0E080818E7F9E
:10099000808380818D7F808388E48093B80085E4A4
:1009A0008093BC000895CF93DF9391E09093B701BB
:1009B0008823B9F0C091B800D091BA008091BC00F2
:1009C0008A7B8093BC0060E082E10E94CD0360E0FE
:1009D00083E10E94CD030E94B504D093BA00C09376
:1009E000B800DF91CF9108958F929F92AF92BF92FE
:1009F000CF92DF92EF92FF920F931F93CF93DF93EB
:100A0000D0918802D13208F0D7C0182FC091870248
:100A10000E9437046B017C0180915F0281116BC0E1
:100A200082E080935F0210935E028FEF80935D02FD
:100A300010925C02D0935B02A7E6B2E0EBE3F2E037
:100A400080E0D81391C010923A0280913A02CC0F04
:100A5000C82BC0933A0280913902813009F088C0D6
:100A6000109239020E9437046B017C0180913A0296
:100A70008093BB008091610290916202A091630219
:100A8000B0916402892B8A2B8B2BA1F00E94370432
:100A90000091610210916202209163023091640220
:100AA0006C197D098E099F09061717072807390752
:100AB00008F442C08091BC0083FDD8CF85EC8093C0
:100AC000BC000E9437046B017C0180915F02823080
:100AD00009F450C080915D028F3F09F46FC080918E
:100AE0005D02803209F46CC080915D02803309F4AC
:100AF00069C084E026C08091610290916202A09159
:100B00006302B0916402892B8A2B8B2B09F484CF6A
:100B10000E9437048090610290906202A09063026C
:100B2000B09064026C197D098E099F09861697069C
:100B3000A806B90608F070CF809160020E94D30425
:100B400085E0109266021092880210926502DF9191
:100B5000CF911F910F91FF90EF90DF90CF90BF90BA
:100B6000AF909F908F9008959D9191938F5F69CFE3
:100B700085EEA5CF8091610290916202A0916302FF
:100B8000B0916402892B8A2B8B2B09F49ECF0E9493
:100B9000370400916102109162022091630230914A
:100BA00064026C197D098E099F090617170728072B
:100BB000390708F08ACFC0CF81E0C3CF80E0C1CF32
:100BC00082E0BFCF83E0BDCF0895E091090280911C
:100BD0000802E81730F4F0E0E65FFD4F808190E016
:100BE00008958FEF9FEF0895909109028091080278
:100BF0002FEF3FEF981748F4E92FF0E0E65FFD4F45
:100C0000208130E09F5F90930902C901089580918F
:100C1000080290910902891B990B0895CF92DF92E7
:100C2000EF92FF920F931F93CF93DF937C01CB0141
:100C30008A0120916502222389F0EB016B01C40E29
:100C4000D51ECC15DD0569F06991D701ED91FC91B8
:100C50000190F081E02DC7010995F3CF642F0E9428
:100C60008E04C801DF91CF911F910F91FF90EF90FB
:100C7000DF90CF900895CF93DF931F92CDB7DEB76B
:100C80006983209165022223F9F0209188022032A5
:100C900058F021E030E0FC013383228390E080E0D3
:100CA0000F90DF91CF91089580916602E82FF0E0D8
:100CB000E959FD4F998190838F5F809366028093FD
:100CC000880281E090E0ECCF61E0CE0101960E94C5
:100CD0008E04F7CF682F89E892E00C943B06FC0164
:100CE000A5A1B6A18C9192A589238C93A5A1B6A1AB
:100CF0008C9191A5892B8C9308950F931F93CF937B
:100D0000DF93EC018B018DA981110DC01EBD0DB4C7
:100D100007FEFDCF0EBD0DB407FEFDCFDF91CF91D5
:100D20001F910F9108958130E9F480E1E9A1FAA1C2
:100D3000908117FF14C02DA1922B9083EBA1FCA1F1
:100D400090812FA1922B9083EBA1FCA1908128A5EB
:100D500092239083000F111F815041F7DFCF2EA106
:100D60009223EBCFEF8DF8A11083CE010E946F0686
:100D7000EF8DF8A10083CE01DF91CF911F910F91EC
:100D80000C946F06FC0185A9811105C06EBD0DB4E0
:100D900007FEFDCF08958130E1F488E0A1A1B2A162
:100DA0009C9167FF13C025A1922B9C93A3A1B4A192
:100DB0009C9127A1922B9C93660FA3A1B4A19C9117
:100DC00020A592239C93815049F7089526A1922350
:100DD000ECCFA78DB0A16C93CF010C946F06CF938D
:100DE000DF93EC01ED8DFE8D80819CA989238083AA
:100DF000CE010E94C206ED8DFE8D80819BA9892BBC
:100E00008083DF91CF910895AF92BF92CF92DF920E
:100E1000EF92FF920F931F93CF93DF93EC015B014F
:100E20006A01215031097901E60EF71E01501109BE
:100E3000040F151F6AE20E94EF06B501CE010E9461
:100E40007D06B701CE010E947D066BE2CE010E94B5
:100E5000EF06B601CE010E947D06B801CE010E94C8
:100E60007D066CE2CE01DF91CF911F910F91FF9033
:100E7000EF90DF90CF90BF90AF900C94EF06FC0105
:100E800085A9811104C091A182A19CBD8DBD089549
:100E90001F93CF93DF93EC01162FE881F981028431
:100EA000F385E02D0995112371F06DADCE010E94FF
:100EB000EF06E881F9810688F789E02DCE01DF9100
:100EC000CF911F9109946EADF1CFAF92BF92CF92A7
:100ED000DF92EF92FF920F931F93CF93DF93EC017A
:100EE00077FD38C088859985681779079CF557FD87
:100EF00031C08A859B854817590764F569017A01D5
:100F00005B01E881F9810284F385E02DCE0109952A
:100F1000E881F98102A4F3A5E02D01E010E021E0D1
:100F200030E0A701B501CE010995B601CE010E94BE
:100F30007D06E881F9810688F789E02DCE01DF91F1
:100F4000CF911F910F91FF90EF90DF90CF90BF90C6
:100F5000AF900994DF91CF911F910F91FF90EF9087
:100F6000DF90CF90BF90AF9008958F929F92AF92F5
:100F7000BF92CF92DF92EF92FF920F931F93CF9386
:100F8000DF93EC0149015701E881F98102A4F3A53F
:100F9000E02D09959401D8010E94351E6B017C015A
:100FA000C114D104E104F10409F490C08DA98111A8
:100FB00015C081E0C81AD108E108F1088FEFC81602
:100FC000D806E806F80609F481C0BEBC0DB407FED9
:100FD000FDCFAEBC0DB407FEFDCFEBCF813009F0E5
:100FE00045C081E0C81AD108E108F1088FEFC816A2
:100FF000D806E806F80609F469C09B2D88E0E9A147
:10100000FAA1208197FF2CC03DA1232B2083EBA1C7
:10101000FCA120813FA1232B2083EBA1FCA12081F7
:1010200038A523232083990F815049F79A2D88E012
:10103000E9A1FAA1208197FF16C03DA1232B2083AF
:10104000EBA1FCA120813FA1232B2083EBA1FCA1DC
:10105000208138A523232083990F815049F7C1CFE0
:101060003EA12323D3CF3EA12323E9CFBA1016C03C
:10107000CC0CDD1CEE1CFF1CEF8DF8A1B08281E0D2
:10108000C81AD108E108F1088FEFC816D806E8069B
:10109000F806E1F0CE010E946F06F1CF81E0C81A98
:1010A000D108E108F1088FEFC816D806E806F8065F
:1010B00069F0EF8DF8A1B082CE010E946F06EF8D2E
:1010C000F8A1A082CE010E946F06E8CFDF91CF91F8
:1010D0001F910F91FF90EF90DF90CF90BF90AF9056
:1010E0009F908F9008958F929F92AF92BF92CF92D0
:1010F000DF92EF92FF920F931F93CF93DF935C01E8
:101100004B016A01E90177FD52C0DC0118968D910F
:101110009C91681779070CF04AC0209709F447C0E2
:1011200037FF07C0C9010196C80ED91ED195C195D8
:10113000D109F50182859385C816D906C4F5A601A3
:101140004C0F5D1F9A012150310937FD30C0D7FE89
:1011500003C0EA01D12CC12C281739071CF0EC017F
:10116000CC19DD09D501ED91FC910284F385E02DC8
:10117000C501099578018E0121E030E0A601B40196
:10118000C5010E94B507D501ED91FC910688F7894C
:10119000E02DC501DF91CF911F910F91FF90EF904E
:1011A000DF90CF90BF90AF909F908F900994DF9188
:1011B000CF911F910F91FF90EF90DF90CF90BF9054
:1011C000AF909F908F9008958F929F92AF92BF9211
:1011D000CF92DF92EF92FF920F931F93CF93DF9303
:1011E0005C016B014A01E90157FD52C0DC011A960E
:1011F0008D919C91481759070CF04AC0209709F42B
:1012000047C037FF07C0C9010196C80ED91ED19546
:10121000C195D109F50180859185C816D906C4F517
:10122000A6014C0F5D1F9A012150310937FD30C0D6
:10123000D7FE03C0EA01D12CC12C281739071CF0B6
:10124000EC01CC19DD09D501ED91FC910284F38507
:10125000E02DC5010995780101E010E09E01A4018F
:10126000B601C5010E94B507D501ED91FC91068834
:10127000F789E02DC501DF91CF911F910F91FF906C
:10128000EF90DF90CF90BF90AF909F908F90099498
:10129000DF91CF911F910F91FF90EF90DF90CF9052
:1012A000BF90AF909F908F9008958F929F92AF9232
:1012B000BF92CF92DF92EF92FF920F931F93CF9343
:1012C000DF934C016B015A01E901209709F46CC0CE
:1012D0000115110509F468C037FF07C0C90101965F
:1012E000C80ED91ED195C195D109F401A085B1854B
:1012F000CA16DB060CF058C017FF07C0C8010196DC
:10130000A80EB91E119501951109F40182859385E6
:10131000A816B9060CF048C0F601EC0FFD1FAF018E
:101320004150510957FD40C0B501600F711F9B012D
:101330002150310937FD38C0D7FE03C0EF01D12C51
:10134000C12CB7FE03C08B01B12CA12C4A175B073F
:101350001CF0ED01CC19DD09281739071CF08C01B0
:101360000A191B09D401ED91FC910284F385E02D4B
:10137000C40109959E01A501B601C4010E94B507EB
:10138000D401ED91FC910688F789E02DC401DF912D
:10139000CF911F910F91FF90EF90DF90CF90BF9072
:1013A000AF909F908F900994DF91CF911F910F91F3
:1013B000FF90EF90DF90CF90BF90AF909F908F9075
:1013C0000895EF92FF920F931F93CF93DF9377FDD2
:1013D00032C0DC011896ED91FC916E177F075CF529
:1013E0002115310541F137FF07C0F90131964E0F44
:1013F0005F1F319521953109DC011A96ED91FC9121
:101400004E175F07C4F4EA01C20FD31FDE01119724
:10141000B7FD11C057FF03C09E0150E040E0AE177A
:10142000BF071CF09F01241B350B7801890121E0C7
:1014300030E00E94B507DF91CF911F910F91FF908F
:10144000EF900895EF92FF920F931F93CF93DF9346
:1014500057FD31C0DC011A96ED91FC914E175F07E4
:1014600054F52115310539F137FF07C0F9013196DF
:101470006E0F7F1F319521953109DC011896ED9192
:10148000FC916E177F07BCF4EB01C20FD31FDE0186
:101490001197B7FD10C077FF03C09E0170E060E0B8
:1014A000AE17BF071CF09F01261B370B780101E028
:1014B00010E00E94B507DF91CF911F910F91FF902F
:1014C000EF9008958F929F92AF92BF92CF92DF924A
:1014D000EF92FF920F931F93CF93DF934701211554
:1014E000310509F44BC00115110509F447C037FF58
:1014F00007C0F90131966E0F7F1F31952195310993
:10150000DC011896AD90BC906A157B05BCF517FF01
:1015100007C0F80131964E0F5F1F11950195110913
:10152000DC011A96ED91FC914E175F073CF56B01BB
:10153000C20ED31EE6012197D7FD20C07A01E00E2E
:10154000F11ED7011197B7FD19C077FF03C09601AF
:1015500070E060E057FF03C0870150E040E0CA152B
:10156000DB051CF09501261B370BAE17BF071CF0DF
:101570008F01041B150B74010E94B507DF91CF91F9
:101580001F910F91FF90EF90DF90CF90BF90AF90A1
:101590009F908F900895EF92FF920F931F93CF9398
:1015A000DF93EC0177FD22C088859985681779075C
:1015B000ECF457FD1BC08A859B8548175907B4F486
:1015C0007901E881F98102A4F3A5E02D01E010E0A2
:1015D00021E030E0CE010995B701CE01DF91CF9136
:1015E0001F910F91FF90EF900C947D06DF91CF91AA
:1015F0001F910F91FF90EF900895CF93DF93EC012F
:101600000E943F078FA987FD06C0EB8DFC8D80816E
:101610009AA989238083DF91CF9108950895AF928D
:10162000BF92CF92DF92EF92FF920F931F93CF93CF
:10163000DF93EC01E62E8A01A22E0E943F078FA9BC
:1016400087FD06C0EB8DFC8D80819AA9892380835C
:10165000ED8DFE8D80819CA9892380836E2DCE0126
:101660000E94C206ED8DFE8D80819BA9892B80830F
:10167000D12CC12CB12CCA14DB04E4F48DA978015F
:10168000823079F488A9882361F0F8016191719121
:101690007F01CE010E947D06FFEFCF1ADF0A87018E
:1016A000EACFFFEFEF1AFF0AF8016491CE010E9422
:1016B000C206F2CF8FA987FD06C0EB8DFC8D80811D
:1016C00099A9892B8083DF91CF911F910F91FF9072
:1016D000EF90DF90CF90BF90AF900895611106C05A
:1016E00060E220E050E040E00C940F0B61E2F9CFA3
:1016F0000F931F93CF93DF931F92CDB7DEB78C016B
:101700006370DC0156966C935697623009F468C09A
:10171000633009F46AC0613009F456C088E48983F3
:1017200080EF90E019969C938E93189780E491E057
:101730001B969C938E931A97C8010E943F07D8016D
:10174000D7968C91D79787FD09C05B96ED91FC9158
:101750005C978081D2969C9189238083D8015D9685
:10176000ED91FC915E978081D4969C918923808332
:1017700066E3C8010E94C206D8015D96ED91FC9116
:101780005E978081D3969C91D397892B8083D59641
:101790008C91823061F16981C8010E94C206D80132
:1017A000D7968C91D79787FD09C05B96ED91FC91F8
:1017B0005C978081D1969C91892B80830F90DF91DB
:1017C000CF911F910F91089588E2898380E491E081
:1017D000F8019187808780EF90E093878287ACCF74
:1017E00088E8898380EF90E09DCF88EEEECFF80106
:1017F00080A9882381F269817A81C8010E947D06CF
:10180000CECFFC0187A987FD06C0A38DB48D9C9126
:1018100081A9892B8C9308950895FC016370668BD0
:101820008481958126813781613039F0633029F0D8
:101830009187808733872287089531872087938710
:10184000828708952F923F924F925F926F927F927C
:101850008F929F92AF92BF92CF92DF92EF92FF92C0
:101860000F931F93CF93DF93CDB7DEB76A970FB671
:10187000F894DEBF0FBECDBF9A8F898F7A836983BC
:101880004A01D22E18870F833701BC2CDC015996F0
:101890002D913C915A972115310509F015C11896E3
:1018A0008D919C911997681779070CF0D7C11A96FA
:1018B0008D919C91481759070CF0D0C14C2C512C9C
:1018C000B6E0CB9E600D711D11247C876B871616C8
:1018D00017060CF0C3C1EA2DF0E0FA87E98793E020
:1018E000EE0FFF1F9A95E1F7F88BEF87CF01840F7A
:1018F000951F181619060CF0B1C1A98DBA8D58960E
:101900008C91811104C0BFEABD1508F4D394A98D50
:10191000BA8DED91FC9111970284F385E02DCD01F4
:101920000995B5E0DB9EC0011124E981FA81FC83B1
:10193000EB83312C212C9C0128593F4F388F2F8B62
:101940004A2D50E05E8B4D8BEF89F88DE20DF31D33
:1019500044919E828D82D12CC12C69817A81620D45
:10196000731D7A8B698B842F90E09C8B8B8BE98D18
:10197000FA8DA081B18140FF82C0F1E0BF126FC03B
:10198000AF126DC01C96ED91FC912F813885A4019A
:101990004C0D5D1D69897A89898D9A8D0995EB8930
:1019A000FC89F595E7954E2F5FEFC51AD50A6D8135
:1019B0007E818D899E89680F791F7E836D8398E073
:1019C000C916D10481F6AFEF2A1A3A0AEB81FC81DD
:1019D000E40DF51DFC83EB83F5E02F16310409F0CF
:1019E000B3CF2F81388526153705B9F0A98DBA8D6B
:1019F000ED91FC91B1E0BB1257C0AB1255C06981AB
:101A00007A816B5F7F4F0088F189E02D830128E0A8
:101A100030E0A401898D9A8D0995A98DBA8DED913B
:101A2000FC9111970688F789E02DCD016A960FB6D3
:101A3000F894DEBF0FBECDBFDF91CF911F910F9104
:101A4000FF90EF90DF90CF90BF90AF909F908F90DE
:101A50007F906F905F904F903F902F9009941E96CB
:101A6000ED91FC91EF80F88409851A8592014D81F2
:101A70005E816B817C81898D9A8D099590CF2F81B4
:101A800038852615370509F48ACF31E0B31207C02F
:101A9000A31205C01C96ED91FC91930178CF1E9680
:101AA000ED91FC917301E0CF6B857C85641975091C
:101AB0000684F785E02D73010F8518899201A40132
:101AC000898D9A8D0995A9CFF90134969491329711
:101AD00045915491D91AB7E0DB9E400D511D112458
:101AE000F901259134913C8B2B8BFA012590349090
:101AF000FA013296749031963491398B3296649013
:101B00003196449041E04C1518F04A1508F07FC01A
:101B1000662D062C000C770B7C836B83842D042CA4
:101B2000000C990B9E838D83A98DBA8DED91FC914C
:101B300011970284F385E02DCD010995512CD12C0C
:101B4000C12CEA2DF0E0FA87E9872B2D30E03C87A5
:101B50002B87A401440D511D47FC5A95588F4F8B7C
:101B600069817A81660D711D67FC7A957E876D8724
:101B70007989C71608F051CF2C2D30E04D815E8158
:101B8000420F531FA985BA854A9FC0014B9F900DF4
:101B90005A9F900D1124FC01E80DF91DF88BEF8779
:101BA000852D612C4F89588D420F531F5E8B4D8BB5
:101BB000671408F050C044244394480E877041F4E1
:101BC000C1010196EB89FC89E20DF31DD4901C0143
:101BD000D7FE19C0A98DBA8DED91FC91662D70E0EC
:101BE000B1E0BB1219C0AB1217C02D853E85620F44
:101BF000731F0484F585E02D2F8138854D895E891A
:101C0000898D9A8D0995DD0C6394842DD1CF1E8228
:101C10001D821C821B8288CF4B815C81640F751FE3
:101C2000AB85BC856A9FC0016B9F900D7A9F900D1C
:101C3000112469817A81680F791F0684F785E02D68
:101C4000EF80F88409851A859D014F855889898D13
:101C50009A8D0995D8CF570CC3948ACF6A960FB640
:101C6000F894DEBF0FBECDBFDF91CF911F910F91D2
:101C7000FF90EF90DF90CF90BF90AF909F908F90AC
:101C80007F906F905F904F903F902F9008958F922C
:101C90009F92AF92CF92EF92FF920F931F93CF93A9
:101CA000DF93EC01262F898D9A8D009709F051C0A2
:101CB0006A30D1F41D861C868D8948E0849F90018E
:101CC00011248E859F85820F931F9F878E8781E0C9
:101CD00090E0DF91CF911F910F91FF90EF90CF9007
:101CE000AF909F908F9008956D3089F3CC88AD8828
:101CF0008F898823C1F08C859D8536E0C39E800D39
:101D0000911D1124488559854817590764F44E855B
:101D10005F851D861C8638E0A39EC0011124840FB8
:101D2000951F9F878E87EA88FB88088919894E85C9
:101D30005F856C857D85CE010E94220C2C898C8567
:101D40009D8546E0249F800D911D11249D878C87E1
:101D5000BECF6A3069F41D861C86FC013896E4917A
:101D60002D898E859F85E29F800D911D1124ADCF19
:101D70006D3009F4ACCFFC0134963491631708F44C
:101D8000A6CF3296E491E61708F4A1CFFC01329673
:101D900085909490462F431B342F47E0349F800C4E
:101DA000911C1124F401329634913196E49133233D
:101DB000A9F1EE2399F1CC88F4013596E491AD8830
:101DC0004F89442301F10E2E000CFF0BE30FF11D90
:101DD000CE9EA001CF9E500D11246C857D85460FAF
:101DE000571F68857985641775076CF44E855F8584
:101DF0001D861C86FC013896E491AE9E400D511D57
:101E000011245F874E87EA88FB88088919894E85E7
:101E10005F856C857D85CE010E94220CF40134968D
:101E2000E4912C898C859D85E29F800D911D112464
:101E30008DCF6F927F928F929F92AF92BF92CF92EF
:101E4000DF92EF92FF920F931F93CF93DF93EC01FA
:101E50006B015A0139014801E881F9810284F38557
:101E6000E02D0995E881F9810288F389E02D870149
:101E70009301A501B601CE010995A501480D591D93
:101E800041505109E881F9810288F389E02D9301DD
:101E9000B601CE010995E881F9810088F189E02D2C
:101EA0009401A501B601CE010995C60CD71CB60157
:101EB00061507109E881F9810088F189E02D940170
:101EC000A501CE010995E881F9810688F789E02D01
:101ED000CE01DF91CF911F910F91FF90EF90DF9096
:101EE000CF90BF90AF909F908F907F906F9009940C
:101EF0006F927F928F929F92AF92BF92CF92DF921A
:101F0000EF92FF920F931F93CF93DF935C01EB014E
:101F10006A01490138018701DC01ED91FC916217EA
:101F2000730719F5641675062CF0962D872D3A0166
:101F3000C92ED82E9601261937092F5F3F4F048CE2
:101F4000F58DE02DA301BE01C5010995DF91CF916B
:101F50001F910F91FF90EF90DF90CF90BF90AF90C7
:101F60009F908F907F906F9008954615570591F43C
:101F70002617370724F0892D4B01C22FD82F9E0139
:101F8000281939092F5F3F4F068CF78DE02DA601E8
:101F9000B401DACF0284F385E02D0995D501ED91E6
:101FA000FC910488F589E02D83019401A601BE010E
:101FB000C5010995D501ED91FC910688F789E02DC1
:101FC000C501DF91CF911F910F91FF90EF90DF90AE
:101FD000CF90BF90AF909F908F907F906F9009941B
:101FE000EF92FF920F931F93DC011A960D911C91B3
:101FF0001B9718962D913C911997ED91FC9100A09B
:10200000F1A1E02D7B0150E040E070E060E0099537
:102010001F910F91FF90EF9008954F925F926F92F2
:102020007F928F929F92AF92BF92CF92DF92EF9268
:10203000FF920F931F93CF93DF936C012B015A01F3
:1020400039014801DC01ED91FC910284F385E02D1A
:102050000995E201640C751CD601ED91FC91C61541
:10206000D7055CF40088F189E02D87019401A50172
:10207000BE01C60109952196EFCF0688F789E02DAC
:10208000C601DF91CF911F910F91FF90EF90DF90EC
:10209000CF90BF90AF909F908F907F906F905F9008
:1020A0004F9009948F929F92AF92BF92CF92DF92FE
:1020B000EF92FF920F931F93CF93DF93EC015B019D
:1020C0004A016901E881F9810284F385E02D0995CF
:1020D00095012C0D3D1D21503109E881F9810488BD
:1020E000F589E02D78018401A401B501CE0109959F
:1020F000E881F9810688F789E02DCE01DF91CF9143
:102100001F910F91FF90EF90DF90CF90BF90AF9015
:102110009F908F9009948F929F92AF92BF92CF928F
:10212000DF92EF92FF920F931F93CF93DF93EC0117
:102130005B014A0169017801E881F9810284F38534
:10214000E02D0995C80CD91C860101501109E881C0
:10215000F9810488F589E02D9501A401B501CE012E
:102160000995E881F9810688F789E02DCE01DF9194
:10217000CF911F910F91FF90EF90DF90CF90BF9084
:10218000AF909F908F900994EF92FF920F931F93BF
:10219000DC01ED91FC9100A0F1A1E02D09951F91CA
:1021A0000F91FF90EF9008950F931F93DC01ED9135
:1021B000FC91068CF78DE02D09951F910F910895E4
:1021C0000F931F93DC01ED91FC91048CF58DE02DB4
:1021D00009951F910F910895DC01ED91FC91008408
:1021E000F185E02D09942F923F924F925F926F926A
:1021F0007F928F929F92AF92BF92CF92DF92EF9297
:10220000FF920F931F93CF93DF9300D000D000D0A5
:10221000CDB7DEB73C016A013E832D83FC82EB82A1
:102220005801A41AB50AB7FE03C0B194A194B1082D
:102230008D809E80861A970A97FE03C091948194A0
:1022400091088A149B045CF0902F812F0D811E81D0
:102250009D838E839C2D8D2D6B01692F782F0C15FE
:102260001D055CF09D818E817E836D83692F782FA3
:10227000902F812F8601C92ED82E1601201A310ADF
:102280002B012D813E81421A530A57FE03C05194FF
:1022900041945108710137FE03C03FEFE31AF30A7E
:1022A000F594E7948D819E81861797075CF5A1E0F0
:1022B000B0E0BA83A983C016D1064CF1D301ED91E9
:1022C000FC910484F585E02D2B813C81A8016D8172
:1022D0007E818A149B041CF04D815E81B801C3018C
:1022E0000995E418F508F7FE0AC02D813E81898121
:1022F0009A81280F391F3E832D83E20CF31C0F5F58
:102300001F4FD9CF2FEF3FEF3A832983D4CF2696A3
:102310000FB6F894DEBF0FBECDBFDF91CF911F91F6
:102320000F91FF90EF90DF90CF90BF90AF909F9074
:102330008F907F906F905F904F903F902F90089577
:10234000089590E080E00895CF93CAE086E00E946F
:10235000A403892B69F087E00E94A403892B41F034
:1023600069E170E080E090E00E945C04C15071F788
:10237000CF910895FC0101900020E9F73197AF015A
:10238000481B590BBC0185E992E00C944E038F92D7
:102390009F92AF92BF920F931F93CF93DF93CDB7CE
:1023A000DEB7A1970FB6F894DEBF0FBECDBF19A25E
:1023B000423008F44AE08E010F5D1F4F842E912CAD
:1023C000B12CA12CA50194010E94131EE62FB90186
:1023D000CA01EA30F4F4E05DD801EE938D01232BBD
:1023E000242B252B79F790E080E0109719F0CD0190
:1023F0000E94BA11A1960FB6F894DEBF0FBECDBFF2
:10240000DF91CF911F910F91BF90AF909F908F90D0
:102410000895E95CE1CF0C94BA114F925F926F92EC
:102420007F928F929F92AF92BF92CF92DF92EF9264
:10243000FF920F931F93CF936B017C01742EAC011D
:102440009B010E94021E882399F086E591E0CF91BE
:102450001F910F91FF90EF90DF90CF90BF90AF90C2
:102460009F908F907F906F905F904F900C94BA11D7
:1024700046015701E894B7F82FEF3FEF4FE75FE7CA
:10248000C501B4010E94021E81110DC02FEF3FEF64
:102490004FE75FE7C501B4010E94311C18161CF418
:1024A0008AE591E0D4CF2FEF3FEF4FE75FE4C7011C
:1024B000B6010E94901D18161CF48EE591E0C7CF5E
:1024C0002FEF3FEF4FE75FECC701B6010E94311CD1
:1024D00087FDF3CF20E030E0A901C701B6010E94DB
:1024E000311C10E000E087FF0AC06DE285E992E050
:1024F0000E94470E8C01F7FAF094F7F8F094C0E0D0
:1025000060E070E080E09FE37C1641F020E030E086
:1025100040E251E40E94361CCF5FF6CFA70196013E
:102520000E94C51B2B013C010E94AF1C4B015C01AA
:102530004AE00E94C7117C01E00EF11ECC23C1F1DC
:10254000C501B4010E94DE1C9B01AC01C301B201B4
:102550000E94C41B4B015C016EE285E992E00E947F
:10256000470EE80EF91EC15018F120E030E040E2BD
:1025700051E4C501B4010E94951D2B013C010E944C
:10258000AF1C4B01B12CA12C4AE0C501B4010E9443
:10259000C711E80EF91EC501B4010E94DE1C9B01A3
:1025A000AC01C301B2010E94C41B4B015C01DBCF33
:1025B000C701CF911F910F91FF90EF90DF90CF90C7
:1025C000BF90AF909F908F907F906F905F904F9053
:1025D00008950E94591E85ED8093BC008091610290
:1025E00090916202A0916302B09164020796A11DCE
:1025F000B11D23E0B695A795979587952A95D1F7B4
:102600002091BC0024FD03C010925F020895409108
:102610006102509162026091630270916402452BE5
:10262000462B472B69F30097A105B10541F025E33F
:102630002A95F1F700000197A109B109E1CF809136
:1026400060020C94D304CF92DF92EF92FF920F932B
:102650001F93CF93DF93EC016A017B01C114D10476
:10266000E104F10431F4C12C42E1D42E4AE7E42E16
:10267000F12C8FA987FD07C061E00E94FB0361E098
:102680008FA90E94CD0361E088AD0E94FB0361E049
:1026900088AD0E94CD038DA98111A3C040E052E115
:1026A0006AE770E0C416D506E606F70640F47695AC
:1026B0006795579547958F5F8630A1F787E0982FEC
:1026C000906A969599A3809581708AA31BA21CA2FB
:1026D0001DA21EA21FB7F8948091B601811127C0D8
:1026E000E7E2F6E08491E9E0F6E09491E82FF0E08B
:1026F000EE0FFF1FE952FA4FA591B491EC91E92337
:1027000021F461E08AE00E94CD0361E08AE00E944A
:10271000FB038CB580618CBD8CB580648CBD61E0A1
:102720008DE00E94FB0361E08BE00E94FB0380913F
:10273000B6018F5F8093B6011FBF8EA987FD21C0B0
:1027400061E00E94FB0361E08EA90E94CD0364E674
:1027500070E080E090E00E945C0460E08EA90E943E
:10276000CD0364E670E080E090E00E945C0461E0EC
:102770008EA90E94CD0368EC70E080E090E00E949A
:102780005C048EA987FF0DC020E050E040E061E0CE
:10279000CE010E940F0B66E970E080E090E00E949D
:1027A0005C0408E615E0C8010196F801649166230F
:1027B00009F463C00E5F1F4FFC01F490EF2CE89406
:1027C000E7F82E2DA801CE010E940F0B0E0D111D52
:1027D000F7FEE9CF66E970E080E090E00E945C04DB
:1027E000E2CF0DE116E0F12C8130B9F461E08AA569
:1027F0000E94FB0360E08AA50E94CD0361E08CA5E6
:102800000E94FB0360E08CA50E94CD038BA587FD91
:1028100094CF60E00E94FB0390CFF8018491E82FF1
:10282000F0E0EE0FFF1FED5EF94F859194912F8D33
:1028300038A12817390741F461E08F2D0E94FB036E
:1028400060E08F2D0E94CD03F3940F5F1F4FF4E1E2
:10285000FF12E3CF61E08EA50E94FB0361E08EA52D
:102860000E94CD038FA587FD68CF61E00E94FB0326
:1028700061E08FA50E94CD0360CF80EF90E0998743
:10288000888780E491E09B878A87DF91CF911F91B1
:102890000F91FF90EF90DF90CF9008957F928F92ED
:1028A0009F92AF92BF92CF92DF92EF92FF920F93DF
:1028B0001F93CF93DF9300D01F92CDB7DEB7E82EE2
:1028C000062F742E86E00E94A403892BD9F310E012
:1028D000F12CCE0101966C0182E6A82E81E0B82E83
:1028E00090EE892E99249A9487E00E94A403892B64
:1028F00009F04DC0739480913002811106C097E1B8
:10290000971508F0872D782E05C0813059F58BE397
:102910008715D8F11F927F92BF92AF92DF92CF922C
:102920000E945E1E9092A6028092A5021092A802BA
:102930001092A702F092A202E092A1021093A402C8
:102940000093A302C6010E940B1264E670E080E0CF
:1029500090E00E945C040F900F900F900F900F90EA
:102960000F90C2CF823031F49FE1971598F677240B
:102970007394D0CF833021F48CE08715C0F3CACF95
:10298000843041F693E6971528F6712CC3CFF09268
:10299000A202E092A1021093A4020093A30287E690
:1029A00091E00E940B120E94A4111F927F92BF928D
:1029B000AF92DF92CF920E945E1E9092A60280920A
:1029C000A5021092A8021092A702F092A202E09231
:1029D000A1021093A4020093A302C6010E940B124D
:1029E0000E94A41186E00E94A4030F900F900F9004
:1029F0000F900F900F90892B09F076CF80913002C5
:102A00008F5F80933002872D0F900F900F90DF9192
:102A1000CF911F910F91FF90EF90DF90CF90BF90DB
:102A2000AF909F908F907F9008951F920F920FB656
:102A30000F9211242F933F938F939F93AF93BF9344
:102A40008091FC019091FD01A091FE01B091FF01E8
:102A50003091FB0123E0230F2D3758F50196A11D7E
:102A6000B11D2093FB018093FC019093FD01A09385
:102A7000FE01B093FF018091000290910102A091AC
:102A80000202B09103020196A11DB11D80930002C4
:102A900090930102A0930202B0930302BF91AF9101
:102AA0009F918F913F912F910F900FBE0F901F908C
:102AB000189526E8230F0296A11DB11DD2CF1F92B3
:102AC0000F920FB60F9211242F933F934F935F9362
:102AD0006F937F938F939F93AF93BF93EF93FF93E6
:102AE0008091B900887F803609F44AC0F0F58832B9
:102AF00009F4A7C018F5803109F49BC0B8F4882305
:102B000009F4F9C0883009F494C0FF91EF91BF91A6
:102B1000AF919F918F917F916F915F914F913F9175
:102B20002F910F900FBE0F901F901895883109F4C8
:102B300088C0803251F780935D0214C0803409F45C
:102B40009DC040F48033B9F38833F9F680935D0279
:102B500085ECB0C0803509F485C0883509F496C08D
:102B6000883499F60E94EB12D0CF883909F48CC0D2
:102B700038F5883729F050F4883611F0803729F677
:102B800083E080935F021092FA0157C0883809F4FD
:102B90007BC0803919F0803809F0B7CF8091FA01F5
:102BA000803208F071C0E091FA0181E08E0F8093CD
:102BB000FA018091BB00F0E0E652FE4F80833DC0F9
:102BC000803B39F0E0F4803A09F479C0883A09F0A2
:102BD0009CCF84E080935F021092D9011092D801BB
:102BE000E0910602F091070209958091D8018111C8
:102BF0000FC081E08093D8011092B80109C0803CD9
:102C000009F4A6CF883C09F4A3CF883B09F07DCF17
:102C1000E091D90181E08E0F8093D901F0E0E85472
:102C2000FE4F80818093BB009091D9018091D801A3
:102C300029C080913A028093BB0085EC8093BC0050
:102C400064CF90915C0280915B02981758F5E091F7
:102C50005C0281E08E0F80935C02F0E0E55CFD4F4A
:102C60008081E9CFE0915C0281E08E0F80935C026D
:102C70008091BB00F0E0E55CFD4F808390915C02A9
:102C800080915B029817C8F285E8D8CFE0915C028A
:102C900081E08E0F80935C028091BB00F0E0E55CE8
:102CA000FD4F808380915E0281115CCF81E0809333
:102CB000390284EA8093BC0010925F0226CF85EC33
:102CC0008093BC0010925F028091FA01803230F450
:102CD000E091FA01F0E0E652FE4F10826091FA01B5
:102CE00070E0E0910402F09105028AED91E009950F
:102CF0001092FA010ACF10925D0234CFE9E8F2E0B7
:102D00001382128288EE93E0A0E0B0E08483958382
:102D1000A683B78388E191E091838083A5E9B2E03F
:102D200013961C921E92129720EF30E015963C935A
:102D30002E93149780E491E017969C938E931697A8
:102D400019963C932E9318971B969C938E931A97E3
:102D500056961C9256971D961C921E921C971F9673
:102D60001C921E921E9781E055968C93559754960F
:102D70008C9354972FEF3FEF53963C932E9352979B
:102D800051963C932E93509757968C9357975896FD
:102D90001C9258975A961C921E925997D5968C93CE
:102DA000D5978AE0D6968C93D69788E0D7968C9361
:102DB000D79789E0D8968C93D897DA961C921E9272
:102DC000D997DC961C921E92DB97DD961C92DD97BC
:102DD000DE961C92DE971092D4021092D5021092C9
:102DE000D6021092D7028DE09C968C939C978BE034
:102DF0009A968C939A978CE09B968C939B97E6E29D
:102E0000F6E0E491F0E0EE0FFF1FED5EF94F8591E3
:102E100094915E969C938E935D97E8E0F6E0949192
:102E2000D3969C93D397EAE2F6E0E491F0E0EE0FBC
:102E3000FF1FED5EF94F2591349194963C932E93AC
:102E40009397ECE0F6E0849197968C939797E8E25D
:102E5000F6E0E491F0E0EE0FFF1FED5EF94F2591F3
:102E6000349192963C932E939197EAE0F6E0249168
:102E700095962C939597E5E2F6E0E491F0E0EE0F5D
:102E8000FF1FED5EF94F459154915C965C934E9314
:102E90005B97E7E0F6E03491D1963C93D197E9E275
:102EA000F6E0E491F0E0EE0FFF1FEB50FA4F459192
:102EB000549190965C934E935F97EBE0F6E0E4912B
:102EC0009996EC939997E32FE095D296EC93D2974D
:102ED0009095D4969C93D497809598968C93989738
:102EE000209596962C9396978AE291E08D939C93E9
:102EF0000895CF93DF9300D000D0CDB7DEB778949C
:102F000084B5826084BD84B5816084BD85B58260EE
:102F100085BD85B5816085BD80916E00816080939F
:102F20006E00109281008091810082608093810008
:102F30008091810081608093810080918000816018
:102F4000809380008091B10084608093B100809173
:102F5000B00081608093B00080917A00846080939B
:102F60007A0080917A00826080937A0080917A0062
:102F7000816080937A0080917A00806880937A00E3
:102F80001092C10060E08EE00E94FB0362E086E0E8
:102F90000E94FB0362E087E00E94FB0340E050E0F8
:102FA000BA0185E992E00E94231370E060E085E9B0
:102FB00092E00E94F00F1092090210920802109203
:102FC0006602109288020E94B5048CE493E090930C
:102FD0000702809306028DE493E0909305028093AC
:102FE0000402AAE0CA2ED12CB0EE2B2EB7E03B2E65
:102FF00080E480937C0080917A00806480937A00E2
:1030000080917A0086FDFCCF6091780080917900F4
:10301000782F072E000C880B990B0E94E01C2B01C7
:103020003C012BE030E643EB5BE30E94951D4B0136
:103030005C0123E333E343EB50E40E94361C20E0C1
:1030400030E048EC52E40E94951D60933502709385
:10305000360280933702909338022DE834E342ED34
:103060005DE3C301B2010E94951D6093310270932C
:1030700032028093330290933402D092A202C09223
:10308000A102D092A402C092A3023092A602209282
:10309000A5021092A8021092A70282E00E944403A7
:1030A0008AE691E00E940B128FEF9FEF9093A602A9
:1030B0008093A5021092A8021092A70242E0C501D7
:1030C000B4010E940D1285E791E00E94BA118AE7CF
:1030D00091E00E94BA114090350250903602609003
:1030E00037027090380220E030E044E153E4C3013D
:1030F000B2010E94951D20E030E048EC52E40E94AD
:10310000361C4B015C01EE24EA94FE2C0AE010E030
:1031100026E930E048E250E06AE070E085E992E0BC
:103120000E94190FC501B4010E94A81CF0EEEF2EF9
:10313000F7E0FF2E08E010E09B0149E250E06BE071
:1031400070E085E992E00E945509A501940160E0D4
:1031500070E086E193E40E94C41B20E030E040E090
:1031600050E40E94C41B0E94A81C69837A838B834D
:103170009C8320E030E040E351E4C501B4010E94AB
:10318000C51B0E94A81CF12CE12C29813A8149E23F
:1031900050E085E992E00E94550981E00E944403D5
:1031A0008AEA90E09093A2028093A10208E210E0E4
:1031B0001093A4020093A30242E0C301B2010E9453
:1031C0000D1282ED90E09093A2028093A1021093E1
:1031D000A4020093A3028DE791E00E940B1280905D
:1031E000310290903202A0903302B090340282E01B
:1031F0000E9444033092A6022092A5021092A802D7
:103200001092A702D092A202C092A10284E690E09E
:103210009093A4028093A3028FE791E00E940B1287
:1032200080E098EF9093A6028093A5021092A802E6
:103230001092A70242E0C501B4010E940D128EEB6C
:1032400090E09093A2028093A10284E690E0909394
:10325000A4028093A30289E891E00E940B1287E008
:103260000E94A403892B09F093C010923002409170
:103270002F0260EA86E40E944E1480932F02409150
:103280002E0260EA88E60E944E1480932E0240913E
:103290002D026CED86E40E944E1480932D02409125
:1032A0002C026CED88E60E944E1480932C02409113
:1032B0002B026CED86EA0E944E14282F80912E027C
:1032C0006AE00E94071E8295807FB82EB90EB092E8
:1032D0002E0280912F020E94071E8295807FE82E89
:1032E000E90EE0922F0280912D020E94071E829526
:1032F000807FF82EF90EF0922D0280912C020E9410
:10330000071E8295807F082F090F00932C02822FC1
:103310000E94071E8295807F182F190F10932B0291
:1033200081E08093650288E68093870210926602AE
:103330001092880290E080E00E946A0690E080E0AF
:103340000E946A066B2D89E892E00E943B066E2D72
:1033500089E892E00E943B0681E090E00E946A06C4
:103360006F2D89E892E00E943B06602F89E892E089
:103370000E943B06612F89E892E00E943B0681E0B3
:103380000E94F40468EC70E080E090E00E945C042D
:1033900081E08093650288E680938702109266023E
:1033A0001092880290E080E00E946A0680E00E940D
:1033B000F4040E9437044B015C0180915F0281118B
:1033C00065C081E080935F0280935E029FEF9093DF
:1033D0005D0210925C0296E090935B0280933A0249
:1033E00080913A02806D80933A0280913902813057
:1033F00009F0A4C1109239020E9437044B015C010C
:1034000080913A028093BB008091610290916202A8
:10341000A0916302B0916402892B8A2B8B2BA1F0BF
:103420000E943704009161021091620220916302B0
:1034300030916402681979098A099B0906171707F0
:103440002807390708F443C08091BC0083FDD8CF1A
:1034500085EC8093BC000E9437044B015C01809195
:103460005F02813009F46CC180915C02873008F002
:1034700089C180915C02ABE3B2E0EAE0F2E090E067
:10348000981751F12D9121939F5FFACF809161029E
:1034900090916202A0916302B0916402892B8A2B01
:1034A0008B2B09F48ACF0E9437040091610210919E
:1034B00062022091630230916402681979098A09D5
:1034C0009B09061717072807390708F076CF809160
:1034D00060020E94D30480E01092090280930802E7
:1034E00089E892E00E94F4052C0189E892E00E94AC
:1034F000F4053C0189E892E00E94F4054C0189E85A
:1035000092E00E94F40589E892E00E94F4058C01A3
:1035100089E892E00E94F4055C0189E892E00E944B
:10352000F4057C0182E00E944403920184E0359519
:1035300027958A95E1F72F703327842D8F709AE0B5
:10354000929F800D112480932A02930194E0359577
:1035500027959A95E1F72F703327962D9F70692E46
:103560009AE0929F600C112460922E02940144E034
:10357000359527954A95E1F72F703327982D9F7041
:10358000892E9AE0929F800C112480922F0298013C
:1035900054E0359527955A95E1F72F7033270F7032
:1035A000929F000D112400932D02950164E0359542
:1035B00027956A95E1F72F7033279A2D9F70A92ED2
:1035C0009AE0929FA00C1124A0922C02970174E023
:1035D000359527957A95E1F72F7033279E2D9F70AB
:1035E000E92E9AE0929FE00C1124E0922B026AE00F
:1035F0000E94071E905D90931201805D80931101DF
:10360000862D0E94071E905D90930F01805D809330
:103610000E01882D0E94071E905D90930C01805D25
:1036200080930B018E2D0E94071E905D90930901DF
:10363000805D809308018A2D0E94071E905D909303
:103640000401805D80930301802F0E94071E905D1E
:1036500090930101805D80930001D092A202C092FC
:10366000A10280EA90E09093A4028093A30230929A
:10367000A6022092A5021092A8021092A7028CE83E
:1036800091E00E940B1280EE9FEF9093A602809330
:10369000A5021092A8021092A7028BE091E00E946E
:1036A0000B12D092A202C092A1028CED90E09093F6
:1036B000A4028093A3023092A6022092A502109247
:1036C000A8021092A70282E991E00E940B1280EEFC
:1036D0009FEF9093A6028093A5021092A8021092E9
:1036E000A70280E091E00E940B128FEF97E0909389
:1036F000A6028093A5021092A8021092A702D0926F
:10370000A202C092A10286E391E09093A40280936A
:10371000A30281E00E94440388E991E00E940B1219
:1037200064E170E080E090E00E945C0480E090E062
:10373000892B09F45DCC0E9400005ACC85EE89CE1D
:103740008091610290916202A0916302B091640243
:10375000892B8A2B8B2B09F482CE0E94370400918F
:103760006102109162022091630230916402681933
:1037700079098A099B09061717072807390708F0EE
:103780006ECEA5CE87E077CE5058BB27AA270E94E1
:10379000DC1B0C94561D0E94481D38F00E944F1DE2
:1037A00020F039F49F3F19F426F40C94451D0EF4D3
:1037B000E095E7FB0C943F1DE92F0E94671D58F32D
:1037C000BA17620773078407950720F079F4A6F506
:1037D0000C94891D0EF4E0950B2EBA2FA02D0B0131
:1037E000B90190010C01CA01A0011124FF27591B46
:1037F00099F0593F50F4503E68F11A16F040A22F4C
:10380000232F342F4427585FF3CF469537952795BC
:10381000A795F0405395C9F77EF41F16BA0B620BBB
:10382000730B840BBAF09150A1F0FF0FBB1F661F02
:10383000771F881FC2F70EC0BA0F621F731F841F45
:1038400048F4879577956795B795F7959E3F08F06B
:10385000B0CF9395880F08F09927EE0F979587952D
:1038600008950E941B1D08F481E008950E944A1CDF
:103870000C94561D0E944F1D58F00E94481D40F0A8
:1038800029F45F3F29F00C943F1D51110C948A1DBF
:103890000C94451D0E94671D68F39923B1F35523CD
:1038A00091F3951B550BBB27AA2762177307840753
:1038B00038F09F5F5F4F220F331F441FAA1FA9F3E9
:1038C00035D00E2E3AF0E0E832D091505040E695D7
:1038D000001CCAF72BD0FE2F29D0660F771F881F38
:1038E000BB1F261737074807AB07B0E809F0BB0B2B
:1038F000802DBF01FF2793585F4F3AF09E3F51053F
:1039000078F00C943F1D0C948A1D5F3FE4F3983EC1
:10391000D4F3869577956795B795F7959F5FC9F727
:10392000880F911D9695879597F90895E1E0660FA8
:10393000771F881FBB1F621773078407BA0720F021
:10394000621B730B840BBA0BEE1F88F7E09508958A
:103950000E94AF1C6894B1110C948A1D08950E94B6
:103960006F1D88F09F5798F0B92F9927B751B0F085
:10397000E1F0660F771F881F991F1AF0BA95C9F7F3
:1039800014C0B13091F00E94891DB1E008950C94EB
:10399000891D672F782F8827B85F39F0B93FCCF39E
:1039A000869577956795B395D9F73EF49095809570
:1039B000709561957F4F8F4F9F4F0895E89409C090
:1039C00097FB3EF490958095709561957F4F8F4F52
:1039D0009F4F9923A9F0F92F96E9BB279395F69568
:1039E000879577956795B795F111F8CFFAF4BB0FE6
:1039F00011F460FF1BC06F5F7F4F8F4F9F4F16C04A
:103A0000882311F096E911C0772321F09EE8872FD3
:103A1000762F05C0662371F096E8862F70E060E08F
:103A20002AF09A95660F771F881FDAF7880F969508
:103A3000879597F90895990F0008550FAA0BE0E8AC
:103A4000FEEF16161706E807F907C0F01216130660
:103A5000E407F50798F0621B730B840B950B39F4A0
:103A60000A2661F0232B242B252B21F408950A2606
:103A700009F4A140A6958FEF811D811D089597F946
:103A80009F6780E870E060E008959FEF80EC089504
:103A900000240A941616170618060906089500242D
:103AA0000A9412161306140605060895092E0394A7
:103AB000000C11F4882352F0BB0F40F4BF2B11F41B
:103AC00060FF04C06F5F7F4F8F4F9F4F089557FD7A
:103AD0009058440F551F59F05F3F71F04795880F7C
:103AE00097FB991F61F09F3F79F087950895121613
:103AF00013061406551FF2CF4695F1DF08C01616BF
:103B000017061806991FF1CF86957105610508946F
:103B10000895E894BB2766277727CB0197F9089586
:103B20000E941B1D08F48FEF08950E94A81D0C949D
:103B3000561D0E94481D38F00E944F1D20F095230D
:103B400011F00C943F1D0C94451D11240C948A1DFA
:103B50000E94671D70F3959FC1F3950F50E0551FAC
:103B6000629FF001729FBB27F00DB11D639FAA27D2
:103B7000F00DB11DAA1F649F6627B00DA11D661F21
:103B8000829F2227B00DA11D621F739FB00DA11D42
:103B9000621F839FA00D611D221F749F3327A00DFC
:103BA000611D231F849F600D211D822F762F6A2F98
:103BB00011249F5750409AF0F1F088234AF0EE0FFD
:103BC000FF1FBB1F661F771F881F91505040A9F72A
:103BD0009E3F510580F00C943F1D0C948A1D5F3F61
:103BE000E4F3983ED4F3869577956795B795F79566
:103BF000E7959F5FC1F7FE2B880F911D96958795DE
:103C000097F908950E941B1D880B990B0895991B25
:103C100079E004C0991F961708F0961B881F7A95C3
:103C2000C9F780950895A1E21A2EAA1BBB1BFD01BE
:103C30000DC0AA1FBB1FEE1FFF1FA217B307E4078B
:103C4000F50720F0A21BB30BE40BF50B661F771FE3
:103C5000881F991F1A9469F76095709580959095C3
:103C60009B01AC01BD01CF0108950E943D1E33238D
:103C700012F48A1B9B0B0C944E1EA29FB001B39FA3
:103C8000C001A39F700D811D1124911DB29F700D65
:103C9000811D1124911D08950E943D1EB7FF0895B6
:103CA000821B930B0895EE0FFF1F0590F491E02DFA
:103CB000099481E090E0F8940C943621AEE0B0E0F5
:103CC000E4E6FEE10C940D210D891E8986E08C83CB
:103CD0001A8309838FEF9FE79E838D83AE01475E32
:103CE0005F4F6F89788DCE0101960E94811E2F81D2
:103CF0003885020F131FF80110822E96E4E00C9411
:103D00002921ABE0B0E0E7E8FEE10C94FF207C0164
:103D10003B018A01FC0117821682838181FFC8C1A1
:103D2000CE0101965C01F7019381F30193FD85912A
:103D300093FF81913F01882309F453C1853239F4FF
:103D400093FD859193FF81913F01853229F4B7015D
:103D500090E00E947120E7CF912C212C312CFFE1C3
:103D6000F31538F08B3211F190F4803209F183327F
:103D700029F137FC3CC020ED280F2A3050F536FEE3
:103D800020C08AE0989E200D1124922E06C08D320C
:103D900091F0803371F7689430F8F30193FD8591C9
:103DA00093FF81913F018111DACF21C0689431F8EE
:103DB000689432F8F2CF689433F8EFCF689434F80F
:103DC000ECCFEAE02E9E200D1124222E689435F8C7
:103DD000E4CF8E3229F436FC04C1689436F8DDCF86
:103DE0008C3619F4689437F8D8CF8836B1F2982F0A
:103DF0009F7D95549330E0F08336A1F18337C1F174
:103E0000833509F063C02801F2E04F0E511CF80120
:103E1000C080D180692D70E036FC02C06FEF7FEF6B
:103E2000C6010E945B204C01689437F882010AC0E9
:103E30000C5F1F4FFFE3F98388248394912C650165
:103E4000E89437F833FE2DC0522C8114910471F59B
:103E5000552009F468CFB70180E290E00E947120FC
:103E60005A94F6CFF801808189830E5F1F4FE4CF0B
:103E70002801F2E04F0E511CF801C080D180692D5D
:103E800070E036FC02C06FEF7FEFC6010E94662033
:103E90004C018201D5CFB70180E290E00E947120F1
:103EA0002A942814190409F0B0F7CECFF60137FC94
:103EB000859137FE81916F01B70190E00E947120DA
:103EC00051105A94F1E08F1A9108BFCF843619F03F
:103ED000893609F077C0F80137FE6BC060817181C7
:103EE000828193810C5F1F4FF32DFF763F2E97FF4A
:103EF00009C090958095709561957F4F8F4F9F4F2A
:103F0000689437F82AE030E0A5010E94A120C82E6D
:103F1000CA188C2C432C36FE0CC0E89440F8C91407
:103F200040F434FE05C032FC03C0F32DFE7E4F2E5C
:103F3000892C44FE95C0FE01EC0DF11D808180337B
:103F400009F087C0242D297E422E842D8870582E9A
:103F500043FC95C040FE8FC09C2C821418F42C0C9E
:103F6000922C981844FE91C0B70180E390E00E9423
:103F7000712042FE09C088E790E041FE02C088E55A
:103F800090E0B7010E947120C91408F48AC0CA9455
:103F9000D12C9FEFC91AD90ACA0CDB1CF6018291F9
:103FA0006F01B70190E00E947120AC14BD04B1F71D
:103FB0004FCF60817181072E000C880B990B0E5F2B
:103FC0001F4F92CFD32CE894D4F82AE030E0853705
:103FD00039F1232D297FD22E8F3601F148F488350F
:103FE000A9F0F701868197812B96E2E10C941B21C1
:103FF000803749F08837A9F7D4FE02C06894D2F818
:1040000020E130E00DC06894D4F8F6CF34FE03C050
:10401000822F8660D82E20E132E002C028E030E016
:10402000F801D7FE0FC060817181828193810C5F9E
:104030001F4FA5010E94A120C82ECA183D2CE8944C
:1040400037F867CF6081718190E080E00E5F1F4F8D
:10405000F0CF42FC02C0839478CF8394839475CFD1
:10406000842D867809F471CFF6CFB70180E290E015
:104070000E94712083948214C0F3512C73CF522C70
:104080005818821408F46ECFF8CF842D867809F47E
:104090007BCF8BE241FE80E247FC8DE2B70190E0EE
:1040A00071CFB70180E390E00E9471209A946CCFA9
:1040B0008FEF9FEF99CFFC01059061507040011088
:1040C000D8F7809590958E0F9F1F0895FC01615041
:1040D000704001900110D8F7809590958E0F9F1F2A
:1040E00008950F931F93CF93DF93182F092FEB01A0
:1040F0008B8181FD09C01FEF0FEF812F902FDF9182
:10410000CF911F910F91089582FF14C02E813F819E
:104110008C819D81281739073CF4E881F981CF0112
:1041200001969983888310838E819F8101969F8356
:104130008E83E3CFE885F985812F0995892BA1F33B
:10414000DACFFA01AA27283051F1203181F1E89421
:104150006F936E7F6E5F7F4F8F4F9F4FAF4FB1E07A
:104160003ED0B4E03CD0670F781F891F9A1FA11D75
:10417000680F791F8A1F911DA11D6A0F711D811D76
:10418000911DA11D20D009F468943F912AE0269F3B
:1041900011243019305D3193DEF6CF010895462F9A
:1041A0004770405D4193B3E00FD0C9F7F6CF462F7B
:1041B0004F70405D4A3318F0495D31FD40524193E4
:1041C00002D0A9F7EACFB4E0A695979587957795A1
:1041D0006795BA95C9F700976105710508959B0128
:1041E000AC010A2E06945795479537952795BA95B1
:1041F000C9F7620F731F841F951FA01D08952F928A
:104200003F924F925F926F927F928F929F92AF9266
:10421000BF92CF92DF92EF92FF920F931F93CF93B3
:10422000DF93CDB7DEB7CA1BDB0B0FB6F894DEBF4A
:104230000FBECDBF09942A88398848885F846E8470
:104240007D848C849B84AA84B984C884DF80EE80BA
:10425000FD800C811B81AA81B981CE0FD11D0FB6C3
:10426000F894DEBF0FBECDBFED010895F894FFCFE7
:1042700020202F20202F323020200020203A202004
:104280003A202000000000003B060E06A111E405C4
:104290000706F405E50500000000470E4E03A111D6
:1042A000A0116507FD0ACB0A620AE109220AF31090
:1042B000010C780B6E0B7308E4085509F00F780FAA
:1042C000190F231304076E616E00696E66006F7626
:1042D0006600253032750020200048554D4944497C
:1042E00054593A20002070706D000D0A00250043DB
:1042F000555252454E543A200075410054494D459F
:104300003A00444154453A005053312050524F4AEC
:1043100045435420425920524F484954204D554E50
:064320004441444100008D
:107E0000112484B714BE81FFF0D085E080938100F7
:107E100082E08093C00088E18093C10086E0809377
:107E2000C20080E18093C4008EE0C9D0259A86E02C
:107E300020E33CEF91E0309385002093840096BBD3
:107E4000B09BFECF1D9AA8958150A9F7CC24DD24C4
:107E500088248394B5E0AB2EA1E19A2EF3E0BF2EE7
:107E6000A2D0813461F49FD0082FAFD0023811F036
:107E7000013811F484E001C083E08DD089C08234E0
:107E800011F484E103C0853419F485E0A6D080C0E4
:107E9000853579F488D0E82EFF2485D0082F10E0AE
:107EA000102F00270E291F29000F111F8ED06801E7
:107EB0006FC0863521F484E090D080E0DECF843638
:107EC00009F040C070D06FD0082F6DD080E0C81688
:107ED00080E7D80618F4F601B7BEE895C0E0D1E017
:107EE00062D089930C17E1F7F0E0CF16F0E7DF06D8
:107EF00018F0F601B7BEE89568D007B600FCFDCFD4
:107F0000A601A0E0B1E02C9130E011968C91119780
:107F100090E0982F8827822B932B1296FA010C0160
:107F200087BEE89511244E5F5F4FF1E0A038BF0790
:107F300051F7F601A7BEE89507B600FCFDCF97BE46
:107F4000E89526C08437B1F42ED02DD0F82E2BD052
:107F50003CD0F601EF2C8F010F5F1F4F84911BD097
:107F6000EA94F801C1F70894C11CD11CFA94CF0C13
:107F7000D11C0EC0853739F428D08EE10CD085E9AC
:107F80000AD08FE07ACF813511F488E018D01DD067
:107F900080E101D065CF982F8091C00085FFFCCF94
:107FA0009093C60008958091C00087FFFCCF809118
:107FB000C00084FD01C0A8958091C6000895E0E648
:107FC000F0E098E1908380830895EDDF803219F02E
:107FD00088E0F5DFFFCF84E1DECF1F93182FE3DFCA
:107FE0001150E9F7F2DF1F91089580E0E8DFEE27F6
:047FF000FF270994CA
:027FFE00040479
:00000001FF
